:100000000C9435010C9466010C9466010C94660105
:100010000C9466010C9466010C9466010C946601C4
:100020000C9466010C9466010C9466010C946601B4
:100030000C9466010C9466010C9466010C946601A4
:100040000C9466010C9466010C9466010C94660194
:100050000C9466010C9466010C9466010C942803C0
:100060000C9466010C949C030C9472030C9466012E
:100070000C9466010C9466010C9466010C94660164
:100080000C9466010C9466010C9466010C94660154
:100090000C9466010C9466010C9466010C94660144
:1000A0000C9466010C9466010C9466010C94660134
:1000B0000C9466010C9466010C9466010C94660124
:1000C0000C9466010C9466010C9466010C94660114
:1000D0000C9466010C9466010C9466010C94660104
:1000E0000C9466010C9421020C94C6010C94AF018F
:1000F0000C94C1010C9425050C94AB010C943002B6
:100100000C94B3010C948A020C9452020C94A10139
:100110000C94C7010C94D7020C94B9010C94CB0138
:100120000C9494010C9490010C949B010C94A501E7
:100130000C9444020C9498010C94BD010C9486011B
:100140000C948C010C94F401000021002400270081
:100150002A002D00300033000101000004010701D6
:100160000A0100002200250028002B002E0031008B
:10017000340002010000050108010B01000020000D
:100180002300260029002C002F003200000100006F
:10019000030106010901050505050705080808080A
:1001A000020202020A0A080804040404010101010F
:1001B000010101010303030303030303040707070A
:1001C0000C0C0C0C0C0C0C0C0202020206060606AF
:1001D000060606060B0B0B0B0B0B0B0B010210207C
:1001E000200808102040102040800201020108046D
:1001F0000201010204081020408080402010080401
:100200000201800402018040201008040201080459
:10021000020101020408102040800102040810209D
:10022000408000000A0B02090C0D0E0807030401B0
:1002300000000000000000000000000000000000BE
:10024000000000000000000000000000000012118B
:10025000100000000000000000000000000000008E
:100260000000000000000000250511241FBECFEF94
:10027000D1E2DEBFCDBF00E00CBF12E0A0E0B2E0F3
:10028000E8EBFAE000E00BBF02C007900D92AC3142
:10029000B107D9F722E0ACE1B2E001C01D92A23C67
:1002A000B207E1F711E0C5E3D1E000E006C0219715
:1002B0000109802FFE010E945205C433D10780E05E
:1002C0000807A9F70E94D2030C945A050C94000069
:1002D0008150823108F05AC0E82FF0E08827EC58AE
:1002E000FE4F8F4F0C9452059401980186018C01AA
:1002F0009001C6019B01A101A501AB01AF01B301B2
:10030000B901BD01C601C101C701CB0180918000C7
:100310008F77809380000895809180008F7DF9CF42
:1003200080918000877FF5CF84B58F7784BD089555
:1003300084B58F7DFBCF8091B0008F778093B00024
:1003400008958091B0008F7DF9CF809190008F77D4
:10035000809390000895809190008F7DF9CF8091D7
:100360009000877FF5CF8091A0008F778093A000C9
:1003700008958091A0008F7DF9CF8091A000877FA4
:10038000F5CF809120018F7780932001089580918F
:1003900020018F7DF9CF80912001877FF5CF3FB776
:1003A000F8948091BE029091BF02A091C002B091DA
:1003B000C10226B5A89B05C02F3F19F00196A11DCB
:1003C000B11D3FBFBA2FA92F982F8827BC01CD019F
:1003D000620F711D811D911D42E0660F771F881FFE
:1003E000991F4A95D1F70895AF92BF92CF92DF92AD
:1003F000EF92FF920F931F93CF93DF936C017B01DA
:100400008B01040F151FEB015E01AE18BF08C0176A
:10041000D10759F06991D601ED91FC910190F081DD
:10042000E02DC6011995892B79F7C501DF91CF9190
:100430001F910F91FF90EF90DF90CF90BF90AF9002
:100440000895FC01538D448D252F30E0842F90E0DA
:10045000821B930B541710F0CF96089501970895BF
:10046000FC01918D828D981761F0A28DAE0FBF2F88
:10047000B11D5D968C91928D9F5F9F73928F90E0DE
:1004800008958FEF9FEF0895FC01918D828D98174D
:1004900031F0828DE80FF11D858D90E008958FEF8A
:1004A0009FEF0895FC01918D228D892F90E0805C53
:1004B0009F4F821B91098F73992708958CE192E0D9
:1004C0000E94520221E0892B09F420E0822F089536
:1004D000FC01A48DA80FB92FB11DA35ABF4F2C91B9
:1004E000848D90E001968F739927848FA689B789B0
:1004F0002C93A089B1898C91837080648C93938DA7
:10050000848D981306C00288F389E02D80818F7D49
:1005100080830895EF92FF920F931F93CF93DF9301
:10052000EC0181E0888F9B8D8C8D98131AC0E8892F
:10053000F989808185FF15C09FB7F894EE89FF89FE
:100540006083E889F98980818370806480839FBF9C
:1005500081E090E0DF91CF911F910F91FF90EF909C
:100560000895F62E0B8D10E00F5F1F4F0F731127AC
:10057000E02E8C8D8E110CC00FB607FCFACFE889E7
:10058000F989808185FFF5CFCE010E946802F1CF05
:10059000EB8DEC0FFD2FF11DE35AFF4FF0829FB75B
:1005A000F8940B8FEA89FB8980818062CFCFCF934B
:1005B000DF93EC01888D8823B9F0AA89BB89E8898B
:1005C000F9898C9185FD03C0808186FD0DC00FB631
:1005D00007FCF7CF8C9185FFF2CF808185FFEDCFAF
:1005E000CE010E946802E9CFDF91CF91089580E0AB
:1005F00090E0892B29F00E945E0281110E94000088
:1006000080E090E0892B49F080E090E0892B29F090
:100610000E94000081110E94000080E090E0892B80
:1006200049F080E090E0892B29F00E9400008111C0
:100630000E94000080E090E0892B49F080E090E08B
:10064000892B29F00E94000081110C94000008956C
:100650001F920F920FB60F9211242F933F938F93F7
:100660009F93AF93BF938091BA029091BB02A091E8
:10067000BC02B091BD023091B90223E0230F2D37A7
:1006800058F50196A11DB11D2093B9028093BA02BD
:100690009093BB02A093BC02B093BD028091BE02B6
:1006A0009091BF02A091C002B091C1020196A11D1C
:1006B000B11D8093BE029093BF02A093C002B0937D
:1006C000C102BF91AF919F918F913F912F910F9058
:1006D0000FBE0F901F90189526E8230F0296A11DBC
:1006E000B11DD2CF1F920F920FB60F9211240BB6ED
:1006F0000F922F933F934F935F936F937F938F93BB
:100700009F93AF93BF93EF93FF938CE192E00E948E
:100710006802FF91EF91BF91AF919F918F917F916F
:100720006F915F914F913F912F910F900BBE0F9062
:100730000FBE0F901F9018951F920F920FB60F9239
:1007400011240BB60F922F938F939F93EF93FF93E8
:10075000E0912C02F0912D028081E0913202F09123
:10076000330282FD1DC09081809135028F5F8F73AF
:1007700020913602821741F0E0913502F0E0E45E0C
:10078000FD4F958F80933502FF91EF919F918F914F
:100790002F910F900BBE0F900FBE0F901F901895CA
:1007A0008081F2CF789484B5826084BD84B5816005
:1007B00084BD85B5826085BD85B5816085BD80912C
:1007C0006E00816080936E001092810080918100A4
:1007D000826080938100809181008160809381009C
:1007E000809180008160809380008091B10084605E
:1007F0008093B1008091B00081608093B0008091BF
:10080000910082608093910080919100816080933B
:100810009100809190008160809390008091A10070
:1008200082608093A1008091A10081608093A100EB
:100830008091A00081608093A0008091210182605E
:100840008093210180912101816080932101809119
:10085000200181608093200180917A0084608093E0
:100860007A0080917A00826080937A0080917A0089
:10087000816080937A0080917A00806880937A000A
:100880001092C100E0912C02F0912D0282E0808351
:10089000E0912802F09129021082E0912A02F09161
:1008A0002B0280E1808310923402E0913002F091BB
:1008B000310286E08083E0912E02F0912F02808148
:1008C00080618083E0912E02F0912F028081886008
:1008D0008083E0912E02F0912F02808180688083D6
:1008E000E0912E02F0912F0280818F7D808375EE42
:1008F000872E71E0972EF4012491CFE9D1E0FE011B
:1009000084918823C9F090E0880F991FFC01E85B6F
:10091000FE4FA591B491FC01EE59FE4F45915491C3
:100920009FB7F8943C91822F809583238C93FA0192
:100930008081282B20839FBF01EE11E04BE9A42E7C
:1009400041E0B42E5BE2252E52E0352EF8012491D1
:10095000F5018491882399F090E0880F991FFC019C
:10096000E85BFE4FA591B491FC01EE59FE4F8591D5
:1009700094918FB7F8949C91292B2C938FBFE7E229
:10098000F2E08491F801F490F501E490EE2091F00A
:1009900081110E946801EE2DF0E0EE0FFF1FEE596D
:1009A000FE4FA591B4918FB7F8949C91F094F922E1
:1009B000FC928FBFF1018491F4019491FE01F490B7
:1009C000FF2061F081110E946801EF2DF0E0EE0F31
:1009D000FF1FE458FE4FA591B4918C9146E050E082
:1009E00062E172E08CE192E00E94F40142E050E0AA
:1009F00069E172E08CE192E00E94F4010E94CF0173
:100A00002B013C0188ECC82ED12CE12CF12C0E944A
:100A1000CF016419750986099709683E73408105FD
:100A20009105A8F3F1E0CF1AD108E108F10828EE0A
:100A3000420E23E0521E611C711CC114D104E1045A
:100A4000F10429F70E94F70281CFECE1F2E0138272
:100A5000128288EE93E0A0E0B0E084839583A683C1
:100A6000B78384E092E09183808385EC90E0958762
:100A7000848784EC90E09787868780EC90E0918B68
:100A8000808B81EC90E0938B828B82EC90E0958B55
:100A9000848B86EC90E0978B868B118E128E138E52
:100AA000148E0895EE0FFF1F881F8BBF0790F691DD
:080AB000E02D1994F894FFCF2A
:100AB800000000008A02F4012102D702520230022B
:0C0AC80044024B65793A2039000D0A0009
:00000001FF
