:100000000C9439010C944D010C944D010C944D014C
:100010000C944D010C944D010C944D010C944D0128
:100020000C944D010C944D010C944D010C944D0118
:100030000C944D010C944D010C944D010C944D0108
:100040000C944D010C944D010C944D010C944D01F8
:100050000C944D010C944D010C944D010C94C20272
:100060000C944D010C944D010C944D010C944D01D8
:100070000C944D010C944D010C944D010C944D01C8
:100080000C944D010C944D010C944D010C944D01B8
:100090000C944D010C944D010C944D010C944D01A8
:1000A0000C944D010C944D010C944D010C944D0198
:1000B0000C944D010C944D010C944D010C944D0188
:1000C0000C944D010C944D010C944D010C944D0178
:1000D0000C944D010C944D010C944D010C944D0168
:1000E0000C944D010C947B010C9430020C9468022A
:1000F0000C9495020C949F020C9472020C94BF0114
:100100000C9480010C9496010C94C3010C945E0233
:100110000C94B3020C949A010C9424020C94CD011B
:100120000C94A1010C94A7010C94B9010C94BD028C
:100130000C947C020C949E010C94A9020C943A023B
:100140000C9456020C94B5010C94AB010C944E0225
:100150000C94D1010C948B020C9444020C94B101C8
:100160000C942B020C9492010C94C7010000210006
:10017000240027002A002D00300033000101000078
:10018000040107010A0100002200250028002B00BD
:100190002E003100340002010000050108010B01AE
:1001A00005050505070508080808020202020A0AF3
:1001B0000808040404040101010101010101030311
:1001C000030303030303040707070C0C0C0C0C0CBC
:1001D0000C0C0202020206060606060606060B0BB9
:1001E0000B0B0B0B0B0B01021020200808102040FA
:1001F00010204080020102010804020101020408EB
:100200001020408080402010080402018004020178
:1002100080402010080402010804020101020408C1
:1002200010204080010204081020408000000A0BCA
:1002300002090C0D0E080703040100000000000075
:1002400000000000000000000000000000000000AE
:10025000000000000000000012111000000000006B
:10026000000000000000000000000000000000008E
:10027000000011241FBECFEFD1E2DEBFCDBF00E0F2
:100280000CBF22E0A0E0B2E001C01D92AF30B20787
:10029000E1F70E940C030C941E040C940000382F0C
:1002A000EFE2F2E08491E9EEF1E02491E3EAF1E09B
:1002B0009491992309F435C0882311F1815082313A
:1002C000F8F4E82FF0E08827E759FE4F8F4F0C94A1
:1002D00002049A019E017B01920196018001A10115
:1002E000A701AB01B101B501B901BF01C301800193
:1002F000C701CD01D101809180008F77809380006C
:10030000E92FF0E0EE0FFF1FEA57FE4FA591B491E1
:100310008FB7F894EC91311148C020952E232C937F
:100320008FBF0895809180008F7DE8CF80918000FD
:10033000877FE4CF84B58F7784BDE2CF84B58F7D8E
:10034000FBCF8091B0008F778093B000D9CF8091A0
:10035000B0008F7DF9CF809190008F7780939000CF
:10036000CFCF809190008F7DF9CF80919000877FD3
:10037000F5CF8091A0008F778093A000C1CF8091AE
:10038000A0008F7DF9CF8091A000877FF5CF80916D
:1003900020018F7780932001B3CF809120018F7D42
:1003A000F9CF80912001877FF5CF2E2BB8CFE9EED2
:1003B000F1E02491E3EAF1E08491882399F090E060
:1003C000880F991FFC01E459FE4FA591B491FC01DF
:1003D000EA57FE4F859194918FB7F894EC91E22BF8
:1003E000EC938FBF0895CF93DF93EC010E94D70168
:1003F000209729F480E0DF91CF910C944F01CF3FFB
:10040000D10511F481E0F7CFEFE2F2E0E491E150A1
:10041000E23108F0B2C0F0E08827EE5EFD4F8F4F6A
:100420000C94020424022B0230023A024402BD0260
:100430004E0256025E02680272027C028B02950234
:10044000BD029F02A902B30284B5806884BDC7BD06
:10045000DF91CF91089584B5806284BDC8BDF8CF87
:1004600080918000806880938000D0938900C09341
:100470008800EECF80918000806280938000D093CE
:100480008B00C0938A00E4CF8091800088608093C5
:100490008000D0938D00C0938C00DACF8091B000A3
:1004A00080688093B000C093B300D2CF8091B00039
:1004B00080628093B000C093B400CACF8091900056
:1004C000806880939000D0939900C0939800C0CF2B
:1004D00080919000806280939000D0939B00C093A5
:1004E0009A00B6CF80919000886080939000D0935E
:1004F0009D00C0939C00ACCF8091A0008068809349
:10050000A0008091A0008F7B8093A000D093A900D1
:10051000C093A8009DCF8091A00080628093A0002E
:10052000D093AB00C093AA0093CF8091A0008860C5
:100530008093A000D093AD00C093AC0089CF809190
:100540002001806880932001D0932901C093280165
:100550007FCF80912001806280932001D0932B0176
:10056000C0932A0175CF809120018860809320017B
:10057000D0932D01C0932C016BCFC038D1050CF066
:1005800041CF38CF1F920F920FB60F9211242F93A5
:100590003F938F939F93AF93BF9380910B02909162
:1005A0000C02A0910D02B0910E0230910A0223E0DC
:1005B000230F2D3758F50196A11DB11D20930A0276
:1005C00080930B0290930C02A0930D02B0930E0245
:1005D0008091060290910702A0910802B091090251
:1005E0000196A11DB11D8093060290930702A0936E
:1005F0000802B0930902BF91AF919F918F913F91F3
:100600002F910F900FBE0F901F90189526E8230F83
:100610000296A11DB11DD2CF789484B5826084BDAD
:1006200084B5816084BD85B5826085BD85B58160F6
:1006300085BD80916E00816080936E001092810074
:10064000809181008260809381008091810081602F
:1006500080938100809180008160809380008091F0
:10066000B10084608093B1008091B000816080937C
:10067000B000809191008260809391008091910000
:1006800081608093910080919000816080939000C0
:100690008091A10082608093A1008091A10081607F
:1006A0008093A1008091A00081608093A000809140
:1006B00021018260809321018091210181608093DA
:1006C00021018091200181608093200180917A0036
:1006D000846080937A0080917A00826080937A00AF
:1006E00080917A00816080937A0080917A0080689E
:1006F00080937A001092C1000E94D70120910002DD
:10070000309101022F5F3F4F220F331F4FEF429F67
:10071000C001439F900D1124C29664E670E00E94D0
:10072000EE03CB010E94F301C4E6D0E0DD24DA94AD
:1007300053E6E52EF12C00E010E08FB7F8944091DD
:100740000B0250910C0260910D0270910E028FBF4E
:100750008091020290910302A0910402B0910502DF
:10076000481B590B6A0B7B0B4A305105610571051B
:1007700070F10A96A11DB11D8093020290930302AD
:10078000A0930402B09305028091000290910102AF
:100790000196BE010E94EE03909301028093000235
:1007A0008233910524F09701281B390BC90101966A
:1007B000880F991FD89E9001D99E300D1124C90130
:1007C000C296BE010E94EE03CB010E94F301011507
:1007D000110509F4B2CF0E940000AFCF97FB072E9E
:1007E00016F4009407D077FD09D00E940A0407FC94
:1007F00005D03EF4909581959F4F08957095619531
:100800007F4F0895EE0FFF1F881F8BBF0790F69153
:10081000E02D1994AA1BBB1B51E107C0AA1FBB1FE7
:10082000A617B70710F0A61BB70B881F991F5A957C
:10083000A9F780959095BC01CD010895F894FFCF5C
:00000001FF
