:100000000C9435010C9466010C9466010C94660105
:100010000C9466010C9466010C9466010C946601C4
:100020000C9466010C9466010C9466010C946601B4
:100030000C9466010C9466010C9466010C946601A4
:100040000C9466010C9466010C9466010C94660194
:100050000C9466010C9466010C9466010C94910357
:100060000C9466010C9405040C94DB030C9466015B
:100070000C9466010C9466010C9466010C94660164
:100080000C9466010C9466010C9466010C94660154
:100090000C9466010C9466010C9466010C94660144
:1000A0000C9466010C9466010C9466010C94660134
:1000B0000C9466010C9466010C9466010C94660124
:1000C0000C9466010C9466010C9466010C94660114
:1000D0000C9466010C9466010C9466010C94660104
:1000E0000C9466010C94FC010C94EE010C94E1015B
:1000F0000C94F8010C94D9010C9423030C94D501B1
:100100000C94DD010C946D020C9414020C94C50146
:100110000C94D6020C9490020C94E4010C94060208
:100120000C94EA010C947C020C9410020C94400292
:100130000C941B050C94C0010C9402020C940A024E
:100140000C94F4010C949E02000020002300260071
:1001500029002C002F0032000001000003010601DD
:10016000090100000A0B02090C0D0E080703040127
:10017000000000000000000000000000000000007F
:10018000000000000000000000000000000012114C
:10019000100000000000000000000000000000004F
:1001A00000000000000000000000220025002800E0
:1001B0002B002E003100340002010000050108016F
:1001C0000B0100002100240027002A002D00300030
:1001D000330001010000040107010A0105050505BE
:1001E000070508080808020202020A0A08080404AF
:1001F00004040101010101010101030303030303DD
:100200000303040707070C0C0C0C0C0C0C0C02026B
:10021000020206060606060606060B0B0B0B0B0B68
:100220000B0B0102102020080810204010204080F5
:1002300002010201080402010102040810204080AA
:100240008040201008040201800402018040201038
:100250000804020108040201010204081020408081
:1002600001020408102040801B0511241FBECFEF9F
:10027000D1E2DEBFCDBF00E00CBF12E0A0E0B2E0F3
:10028000E4EAFAE000E00BBF02C007900D92AA3446
:10029000B107D9F722E0AAE4B2E001C01D92A03F65
:1002A000B207E1F711E0C5E3D1E000E006C0219715
:1002B0000109802FFE010E944805C433D10780E068
:1002C0000807A9F70E943B040C9450050C94000009
:1002D000CF93DF9390E0FC01EE5DFD4F24918452BB
:1002E0009E4FFC0184918823C1F090E0880F991FF4
:1002F000FC01EE53FE4FC591D491FC01E855FE4F31
:10030000A591B4919FB7F8948881E22FE0958E2350
:1003100088838C91E823EC939FBFDF91CF91089560
:10032000282F30E0F901EE59FE4F9491F901EE5D6E
:10033000FD4F449124523E4FF9012491222309F4A8
:1003400077C0992311F191509231F8F4E92FF0E040
:100350008827E255FE4F8F4F0C944805DD01E101DF
:10036000C001D501D901C501E401EA01EE01F401A2
:10037000F801FC0102020602C5010A021002140281
:10038000809180008F7780938000E22FF0E0EE0F65
:10039000FF1FE85BFE4FA591B491EC91E42381E04F
:1003A00090E009F047C080E00895809180008F7D43
:1003B000EACF80918000877FE6CF84B58F7784BDB8
:1003C000E4CF84B58F7DFBCF8091B0008F77809391
:1003D000B000DBCF8091B0008F7DF9CF809190008D
:1003E0008F7780939000D1CF809190008F7DF9CF4F
:1003F00080919000877FF5CF8091A0008F778093C8
:10040000A000C3CF8091A0008F7DF9CF8091A00084
:10041000877FF5CF809120018F7780932001B5CF22
:10042000809120018F7DF9CF80912001877FF5CFCA
:1004300080E090E008953FB7F89480914F0290914A
:100440005002A0915102B091520226B5A89B05C05E
:100450002F3F19F00196A11DB11D3FBFBA2FA92F43
:10046000982F8827BC01CD01620F711D811D911D40
:1004700042E0660F771F881F991F4A95D1F70895AC
:10048000AF92BF92CF92DF92EF92FF920F931F93A2
:10049000CF93DF936C017B018B01040F151FEB01E0
:1004A0005E01AE18BF08C017D10759F06991D60197
:1004B000ED91FC910190F081E02DC6011995892BF9
:1004C00079F7C501DF91CF911F910F91FF90EF90C8
:1004D000DF90CF90BF90AF900895FC01538D448D75
:1004E000252F30E0842F90E0821B930B541710F0DF
:1004F000CF96089501970895FC01918D828D9817EC
:1005000061F0A28DAE0FBF2FB11D5D968C91928DC3
:100510009F5F9F73928F90E008958FEF9FEF0895F4
:10052000FC01918D828D981731F0828DE80FF11DBD
:10053000858D90E008958FEF9FEF0895FC01918DD8
:10054000228D892F90E0805C9F4F821B91098F73D1
:100550009927089583E592E00E949E0221E0892B6D
:1005600009F420E0822F0895FC01A48DA80FB92F73
:10057000B11DA35ABF4F2C91848D90E001968F73CB
:100580009927848FA689B7892C93A089B1898C91EA
:10059000837080648C93938D848D981306C0028839
:1005A000F389E02D80818F7D80830895EF92FF9203
:1005B0000F931F93CF93DF93EC0181E0888F9B8D86
:1005C0008C8D98131AC0E889F989808185FF15C040
:1005D0009FB7F894EE89FF896083E889F989808163
:1005E0008370806480839FBF81E090E0DF91CF9132
:1005F0001F910F91FF90EF900895F62E0B8D10E054
:100600000F5F1F4F0F731127E02E8C8D8E110CC0C2
:100610000FB607FCFACFE889F989808185FFF5CF0D
:10062000CE010E94B402F1CFEB8DEC0FFD2FF11D36
:10063000E35AFF4FF0829FB7F8940B8FEA89FB894A
:1006400080818062CFCFCF93DF93EC01888D8823A8
:10065000B9F0AA89BB89E889F9898C9185FD03C025
:10066000808186FD0DC00FB607FCF7CF8C9185FF0A
:10067000F2CF808185FFEDCFCE010E94B402E9CF99
:10068000DF91CF91089580E090E0892B29F00E94BE
:10069000AA0281110E94000080E090E0892B49F0BD
:1006A00080E090E0892B29F00E94000081110E94D7
:1006B000000080E090E0892B49F080E090E0892BF9
:1006C00029F00E94000081110E94000080E090E06B
:1006D000892B49F080E090E0892B29F00E940000EE
:1006E00081110C9400000895CF93DF93FC010190D9
:1006F0000020E9F73197AF01481B590BBC0183E596
:1007000092E00E944002EC0142E050E062E172E0BF
:1007100083E592E00E9440028C0F9D1FDF91CF91F4
:1007200008951F920F920FB60F9211242F933F93AB
:100730008F939F93AF93BF9380914B0290914C0204
:10074000A0914D02B0914E0230914A0223E0230F56
:100750002D3758F50196A11DB11D20934A028093B3
:100760004B0290934C02A0934D02B0934E028091A5
:100770004F0290915002A0915102B0915202019605
:10078000A11DB11D80934F0290935002A09351027E
:10079000B0935202BF91AF919F918F913F912F9152
:1007A0000F900FBE0F901F90189526E8230F02960A
:1007B000A11DB11DD2CF1F920F920FB60F9211241F
:1007C0000BB60F922F933F934F935F936F937F934B
:1007D0008F939F93AF93BF93EF93FF9383E592E043
:1007E0000E94B402FF91EF91BF91AF919F918F91C1
:1007F0007F916F915F914F913F912F910F900BBE21
:100800000F900FBE0F901F9018951F920F920FB66A
:100810000F9211240BB60F922F938F939F93EF9308
:10082000FF93E0916302F09164028081E09169029C
:10083000F0916A0282FD1DC0908180916C028F5FF1
:100840008F7320916D02821741F0E0916C02F0E00D
:10085000ED5AFD4F958F80936C02FF91EF919F9120
:100860008F912F910F900BBE0F900FBE0F901F9086
:1008700018958081F2CF789484B5826084BD84B568
:10088000816084BD85B5826085BD85B5816085BD8B
:1008900080916E00816080936E0010928100809143
:1008A00081008260809381008091810081608093CB
:1008B0008100809180008160809380008091B100F0
:1008C00084608093B1008091B00081608093B0001B
:1008D000809191008260809391008091910081606D
:1008E000809391008091900081608093900080912E
:1008F000A10082608093A1008091A100816080931B
:10090000A1008091A00081608093A00080912101CE
:100910008260809321018091210181608093210177
:100920008091200181608093200180917A00846011
:1009300080937A0080917A00826080937A0080911F
:100940007A00816080937A0080917A008068809339
:100950007A001092C100E0916302F091640282E09B
:100960008083E0915F02F09160021082E091610269
:10097000F091620280E1808310926B02E091670245
:10098000F091680286E08083E0916502F091660252
:10099000808180618083E0916502F09166028081B0
:1009A00088608083E0916502F091660280818068B2
:1009B0008083E0916502F091660280818F7D808363
:1009C00082E00E94680183E00E94680182E00E9448
:1009D000900183E00E94900185E192E00E947403FF
:1009E0008FE292E00E9474030E941B024B015C01A3
:1009F00084E6C82ED12CE12CF12C0E941B02681930
:100A000079098A099B09683E734081059105A8F31D
:100A100021E0C21AD108E108F10888EE880E83E0CF
:100A2000981EA11CB11CC114D104E104F10429F7E2
:100A30000E944303D9CFE3E5F2E01382128288EEED
:100A400093E0A0E0B0E084839583A683B78384E03D
:100A500092E09183808385EC90E09587848784EC95
:100A600090E09787868780EC90E0918B808B81EC7B
:100A700090E0938B828B82EC90E0958B848B86EC5C
:100A800090E0978B868B118E128E138E148E0895A4
:100A9000EE0FFF1F881F8BBF0790F691E02D199472
:040AA000F894FFCFF8
:100AA40000000000D60240026D0223039E027C0275
:100AB40090020D0A00506F736974696F6E3A2031A9
:100AC40020446972656374696F6E3A20435700501D
:100AD4006F736974696F6E3A20302044697265637C
:0A0AE40074696F6E3A204343570017
:00000001FF
