:100000000C9417010C942B010C942B010C942B01D4
:100010000C942B010C942B010C942B010C942B01B0
:100020000C942B010C942B010C942B010C942B01A0
:100030000C942B010C942B010C942B010C942B0190
:100040000C942B010C942B010C942B010C942B0180
:100050000C942B010C942B010C942B010C94B501E6
:100060000C942B010C942B010C942B010C942B0160
:100070000C942B010C942B010C942B010C942B0150
:100080000C942B010C942B010C942B010C942B0140
:100090000C942B010C942B010C942B010C942B0130
:1000A0000C942B010C942B010C942B010C942B0120
:1000B0000C942B010C942B010C942B010C942B0110
:1000C0000C942B010C942B010C942B010C942B0100
:1000D0000C942B010C942B010C942B010C942B01F0
:1000E0000C942B010C9485010C94AF010C94AB0182
:1000F0000C945E010C9474010C9459010C949701BA
:100100000C94A1010C947F010C9478010C948F0144
:100110000C947C010C9489010C9470010C94930153
:100120000C94A5010C949D010000210024002700DF
:100130002A002D00300033000101000004010701F6
:100140000A0100002200250028002B002E003100AB
:10015000340002010000050108010B010505050539
:10016000070508080808020202020A0A080804042F
:10017000040401010101010101010303030303035D
:100180000303040707070C0C0C0C0C0C0C0C0202EC
:10019000020206060606060606060B0B0B0B0B0BE9
:1001A0000B0B010210202008081020401020408076
:1001B000020102010804020101020408102040802B
:1001C00080402010080402018004020180402010B9
:1001D0000804020108040201010204081020408002
:1001E000010204081020408000000A0B02090C0DD7
:1001F0000E080703040100000000000000000000DA
:1002000000000000000000000000000000000000EE
:1002100000000000121110000000000000000000AB
:100220000000000000000000000000000000112499
:100230001FBECFEFD1E2DEBFCDBF00E00CBF22E09A
:10024000A0E0B2E001C01D92AE30B207E1F70E941B
:10025000FF010C94CD020C940000382FEBEEF1E07E
:100260008491E5EAF1E02491EFE5F1E0949199239E
:1002700009F435C0882311F181508231F8F4E82F58
:10028000F0E08827E95BFE4F8F4F0C94C5027801A0
:100290007C015901700174015E017F0185018901B2
:1002A0008F01930197019D01A1015E01A501AB01A1
:1002B000AF01809180008F7780938000E92FF0E07C
:1002C000EE0FFF1FEE5BFE4FA591B4918FB7F89430
:1002D000EC91311148C020952E232C938FBF0895A7
:1002E000809180008F7DE8CF80918000877FE4CF70
:1002F00084B58F7784BDE2CF84B58F7DFBCF8091AD
:10030000B0008F778093B000D9CF8091B0008F7DFF
:10031000F9CF809190008F7780939000CFCF80911C
:1003200090008F7DF9CF80919000877FF5CF8091ED
:10033000A0008F778093A000C1CF8091A0008F7D17
:10034000F9CF8091A000877FF5CF809120018F7732
:1003500080932001B3CF809120018F7DF9CF8091D0
:100360002001877FF5CF2E2BB8CF1F920F920FB6AB
:100370000F9211242F933F938F939F93AF93BF932B
:1003800080910A0290910B02A0910C02B0910D0293
:100390003091090223E0230F2D3758F50196A11D56
:1003A000B11D2093090280930A0290930B02A0933F
:1003B0000C02B0930D028091050290910602A0916B
:1003C0000702B09108020196A11DB11D809305029C
:1003D00090930602A0930702B0930802BF91AF91D9
:1003E0009F918F913F912F910F900FBE0F901F9073
:1003F000189526E8230F0296A11DB11DD2CF78943F
:1004000084B5826084BD84B5816084BD85B5826019
:1004100085BD85B5816085BD80916E0081608093CA
:100420006E00109281008091810082608093810033
:100430008091810081608093810080918000816043
:10044000809380008091B10084608093B10080919E
:10045000B00081608093B0008091910082608093B1
:100460009100809191008160809391008091900033
:100470008160809390008091A10082608093A100B0
:100480008091A10081608093A1008091A000816093
:100490008093A0008091210182608093210180914E
:1004A00021018160809321018091200181608093EE
:1004B000200180917A00846080937A0080917A0094
:1004C000826080937A0080917A00816080937A00C4
:1004D00080917A00806880937A001092C100E5EAEA
:1004E000F1E02491EFE5F1E08491882399F090E028
:1004F000880F991FFC01E85DFE4FA591B491FC01A6
:10050000EE5BFE4F859194918FB7F894EC91E22BBE
:10051000EC938FBF809100020E942D0111E0C0E09A
:10052000D0E08FB7F89440910A0250910B0260918D
:100530000C0270910D028FBF809101029091020216
:10054000A0910302B0910402481B590B6A0B7B0B6C
:10055000443F51406105710598F08C509E4FAF4F5C
:10056000BF4F8093010290930202A0930302B093C5
:100570000402809100028127809300020E942D01D5
:10058000209779F20E940000CCCFEE0FFF1F881F4A
:0E0590008BBF0790F691E02D1994F894FFCFE1
:00000001FF
