:100000000C942D010C945E010C945E010C945E0125
:100010000C945E010C945E010C945E010C945E01E4
:100020000C945E010C945E010C945E010C945E01D4
:100030000C945E010C945E010C945E010C945E01C4
:100040000C945E010C945E010C945E010C945E01B4
:100050000C945E010C945E010C945E010C944904B6
:100060000C945E010C94BD040C9493040C945E01FA
:100070000C945E010C945E010C945E010C945E0184
:100080000C945E010C945E010C945E010C945E0174
:100090000C945E010C945E010C945E010C94F304CC
:1000A0000C945E010C945E010C945E010C945E0154
:1000B0000C945E010C945E010C945E010C945E0144
:1000C0000C945E010C945E010C945E010C945E0134
:1000D0000C945E010C945E010C945E010C945E0124
:1000E0000C945E010C949C030C94AB010C94D20311
:1000F0000C94AF010C944F020C9411020C94D80193
:100100000C94CA010C94B3010C94E6010C94950173
:100110000C94B6010C94C0010C94CE010C944002D6
:100120000C94D4010C94A7010C94A9020C94E20144
:100130000C9490010C9417060C94DC010C94710241
:100140000C948C030C94AF030C94C6010C94130212
:100150000C9412020C94BC010C948D030C94C103FA
:100160000C9463020C94B6030C94F6020000220077
:10017000250028002B002E00310034000201000071
:10018000050108010B010505050507050808080814
:10019000020202020A0A080804040404010101011F
:1001A000010101010303030303030303040707071A
:1001B0000C0C0C0C0C0C0C0C0202020206060606BF
:1001C000060606060B0B0B0B0B0B0B0B010210208C
:1001D000200808102040102040800201020108047D
:1001E0000201010204081020408080402010080411
:1001F000020180040201804020100804020108046A
:1002000002010102040810204080010204081020AD
:10021000408000000A0B02090C0D0E0807030401C0
:1002200000000000000000000000000000000000CE
:10023000000000000000000000000000000012119B
:10024000100000000000000000000000000000009E
:100250000000000000000000170611241FBECFEFB1
:10026000D1E2DEBFCDBF00E00CBF12E0A0E0B2E003
:10027000E6EAFEE000E00BBF02C007900D92A23458
:10028000B107D9F723E0A2E4B2E001C01D92AC3877
:10029000B207E1F711E0CDE2D1E000E006C021971E
:1002A0000109802FFE010E944907CC32D10780E06E
:1002B0000807A9F70E9450060C9451070C940000FF
:1002C000282F30E0F901EE5EFD4F9491F901E453DF
:1002D000FE4F44912A573E4FF9012491222309F4FD
:1002E00035C0992311F191509231F8F4E92FF0E0E3
:1002F0008827E258FE4F8F4F0C944907AF01B30196
:100300009001A701AB019501B601BC01C001C60176
:10031000CA01CE01D401D8019501DC01E201E60158
:10032000809180008F7780938000E22FF0E0EE0FC5
:10033000FF1FE459FE4FA591B4918FB7F894EC914B
:10034000611148C040954E234C938FBF0895809112
:1003500080008F7DE8CF80918000877FE4CF84B5D7
:100360008F7784BDE2CF84B58F7DFBCF8091B000C5
:100370008F778093B000D9CF8091B0008F7DF9CF77
:10038000809190008F7780939000CFCF80919000E4
:100390008F7DF9CF80919000877FF5CF8091A0006D
:1003A0008F778093A000C1CF8091A0008F7DF9CF7F
:1003B0008091A000877FF5CF809120018F77809377
:1003C0002001B3CF809120018F7DF9CF8091200152
:1003D000877FF5CF4E2BB8CF3FB7F8948091DF02DF
:1003E0009091E002A091E102B091E20226B5A89BB3
:1003F00005C02F3F19F00196A11DB11D3FBFBA2FB7
:10040000A92F982F8827BC01CD01620F711D811D76
:10041000911D42E0660F771F881F991F4A95D1F7FB
:10042000089508950895AF92BF92CF92DF92EF9210
:10043000FF920F931F93CF93DF936C017B018B018E
:10044000040F151FEB015E01AE18BF08C017D107DE
:1004500059F06991D601ED91FC910190F081E02D68
:10046000C6011995892B79F7C501DF91CF911F91AD
:100470000F91FF90EF90DF90CF90BF90AF900895D5
:10048000FC01538D448D252F30E0842F90E0821B9A
:10049000930B541710F0CF96089501970895FC011F
:1004A000918D828D981761F0A28DAE0FBF2FB11D77
:1004B0005D968C91928D9F5F9F73928F90E00895CF
:1004C0008FEF9FEF0895FC01918D828D981731F089
:1004D000828DE80FF11D858D90E008958FEF9FEFDD
:1004E0000895FC01918D228D892F90E0805C9F4FB3
:1004F000821B91098F739927089583EE92E00E94E1
:10050000710221E0892B09F420E0822F0895FC017B
:10051000A48DA80FB92FB11DA35ABF4F2C91848D64
:1005200090E001968F739927848FA689B7892C93C1
:10053000A089B1898C91837080648C93938D848D14
:10054000981306C00288F389E02D80818F7D808317
:100550000895EF92FF920F931F93CF93DF93EC01D7
:1005600081E0888F9B8D8C8D98131AC0E889F9895A
:10057000808185FF15C09FB7F894EE89FF8960835D
:10058000E889F98980818370806480839FBF81E0DE
:1005900090E0DF91CF911F910F91FF90EF90089520
:1005A000F62E0B8D10E00F5F1F4F0F731127E02EFB
:1005B0008C8D8E110CC00FB607FCFACFE889F98933
:1005C000808185FFF5CFCE010E948702F1CFEB8DB0
:1005D000EC0FFD2FF11DE35AFF4FF0829FB7F89407
:1005E0000B8FEA89FB8980818062CFCFCF93DF9325
:1005F000EC01888D8823B9F0AA89BB89E889F9893B
:100600008C9185FD03C0808186FD0DC00FB607FC6F
:10061000F7CF8C9185FFF2CF808185FFEDCFCE01A2
:100620000E948702E9CFDF91CF91089580E090E0AA
:10063000892B29F00E947D0281110E94000080E038
:1006400090E0892B49F080E090E0892B29F00E940E
:10065000000081110E94000080E090E0892B49F0A9
:1006600080E090E0892B29F00E94000081110E9417
:10067000000080E090E0892B49F080E090E0892B39
:1006800029F00E94000081110C940000089520912F
:100690008802260F3327331F21323105ECF42091D5
:1006A000AC02FC0190E080E0243069F082E0089523
:1006B000A09188022191AC0148595D4FA40FB52F3C
:1006C000B11D2C930196861798F380918802680FCC
:1006D0006093880280E0089581E008951092AC0252
:1006E00081E08093AE021092AD0261E084E10E944D
:1006F000600161E085E10E946001E9EBF0E080814A
:100700008E7F808380818D7F808388E48093B80092
:1007100085E48093BC0008950895E091D90280910A
:10072000D802E81730F4F0E0EE5BFD4F808190E0F6
:1007300008958FEF9FEF08959091D9028091D8028C
:100740002FEF3FEF981748F4E92FF0E0EE5BFD4FF5
:10075000208130E09F5F9093D902C9010895809174
:10076000D8029091D902891B990B0895CF93DF93FA
:10077000CB01EA01642F0E944703CE01DF91CF91A4
:100780000895CF93DF931F92CDB7DEB7698361E001
:10079000CE0101960E94470381E090E00F90DF9127
:1007A000CF91089590E080E00895CF93DF93FC010E
:1007B00001900020E9F73197AF01481B590BBC01AC
:1007C00083EE92E00E941302EC0142E050E064E20A
:1007D00072E083EE92E00E9413028C0F9D1FDF9166
:1007E000CF910895CF93DF9385ED8093BC008091E6
:1007F000640290916502A0916602B091670207962B
:10080000A11DB11D23E0B695A795979587952A95CB
:10081000D1F72091BC0024FD03C01092AC0236C079
:100820004091640250916502609166027091670286
:10083000452B462B472B69F30097A105B10541F0E5
:100840002AE22A95F1F700C00197A109B109E1CF89
:100850008091630291E0909362028823B9F0C09185
:10086000B800D091BA008091BC008A7B8093BC0014
:1008700060E084E10E94600160E085E10E94600127
:100880000E946E03D093BA00C093B800DF91CF915D
:1008900008951F920F920FB60F9211242F933F933A
:1008A0008F939F93AF93BF938091DB029091DC0273
:1008B000A091DD02B091DE023091DA0223E0230F35
:1008C0002D3758F50196A11DB11D2093DA028093B2
:1008D000DB029093DC02A093DD02B093DE028091F4
:1008E000DF029091E002A091E102B091E202019654
:1008F000A11DB11D8093DF029093E002A093E1025D
:10090000B093E202BF91AF919F918F913F912F9150
:100910000F900FBE0F901F90189526E8230F029698
:10092000A11DB11DD2CF1F920F920FB60F921124AD
:100930000BB60F922F933F934F935F936F937F93D9
:100940008F939F93AF93BF93EF93FF9383EE92E0C8
:100950000E948702FF91EF91BF91AF919F918F917C
:100960007F916F915F914F913F912F910F900BBEAF
:100970000F900FBE0F901F9018951F920F920FB6F9
:100980000F9211240BB60F922F938F939F93EF9397
:10099000FF93E091F302F091F4028081E091F9027B
:1009A000F091FA0282FD1DC090818091FC028F5F60
:1009B0008F732091FD02821741F0E091FC02F0E07C
:1009C000ED51FD4F958F8093FC02FF91EF919F9128
:1009D0008F912F910F900BBE0F900FBE0F901F9015
:1009E00018958081F2CF1F920F920FB60F921124AB
:1009F0000BB60F922F933F934F935F936F937F9319
:100A00008F939F93AF93BF93EF93FF938091B90020
:100A1000887F803609F44DC008F040C0883209F460
:100A2000A9C028F5803109F49DC0C8F4882309F4D1
:100A3000FBC0883009F496C0FF91EF91BF91AF9150
:100A40009F918F917F916F915F914F913F912F91E6
:100A50000F900BBE0F900FBE0F901F90189588310E
:100A600009F488C0803241F78093AB0214C080340F
:100A700009F49DC040F48033B9F38833E9F68093DC
:100A8000AB0285ECB0C0803509F485C0883509F427
:100A900096C0883489F60E94F203CECF883909F4D3
:100AA0008CC038F5883729F050F4883611F080373B
:100AB00019F683E08093AC021092AA0257C08838DE
:100AC00009F47BC0803919F0803809F0B5CF8091E6
:100AD000AA02803208F071C0E091AA0281E08E0F74
:100AE0008093AA028091BB00F0E0E657FD4F80831F
:100AF0003DC0803B39F0E0F4803A09F479C0883A8F
:100B000009F09ACF84E08093AC021092890210928F
:100B10008802E091D402F091D50219958091880263
:100B200081110FC081E0809388021092680209C091
:100B3000803C09F4A6CF883C09F4A3CF883B09F098
:100B40007BCFE091890281E08E0F80938902F0E0F3
:100B5000E859FD4F80818093BB009091890280917C
:100B6000880229C08091D1028093BB0085EC8093DC
:100B7000BC0062CF9091D0028091CF02981758F5B7
:100B8000E091D00281E08E0F8093D002F0E0E15539
:100B9000FD4F8081E9CFE091D00281E08E0F8093FC
:100BA000D0028091BB00F0E0E155FD4F8083909131
:100BB000D0028091CF029817C8F285E8D8CFE09193
:100BC000D00281E08E0F8093D0028091BB00F0E0D4
:100BD000E155FD4F80838091AE0281115CCF81E0B1
:100BE0008093AD0284EA8093BC001092AC0224CFC3
:100BF00085EC8093BC001092AC028091AA028032F6
:100C000030F4E091AA02F0E0E657FD4F10826091C7
:100C1000AA0270E0E091D202F091D3028AE892E059
:100C200019951092AA0208CF1092AB0234CFE3EECE
:100C3000F2E01382128288EE93E0A0E0B0E08483B9
:100C40009583A683B78324E032E03183208325ECAB
:100C500030E03587248724EC30E03787268720EC86
:100C600030E0318B208B21EC30E0338B228B22EC77
:100C700030E0358B248B26EC30E0378B268B118EC1
:100C8000128E138E148EE0E8F3E0138212828483B6
:100C90009583A683B78386E192E09183808308954C
:100CA000789484B5826084BD84B5816084BD85B547
:100CB000826085BD85B5816085BD80916E00816053
:100CC00080936E00109281008091810082608093F9
:100CD00081008091810081608093810080918000FB
:100CE0008160809380008091B10084608093B10026
:100CF0008091B00081608093B0008091910082600B
:100D00008093910080919100816080939100809107
:100D100090008160809390008091A1008260809318
:100D2000A1008091A10081608093A1008091A0002A
:100D300081608093A00080912101826080932101D5
:100D40008091210181608093210180912001816047
:100D50008093200180917A00846080937A00809152
:100D60007A00826080937A0080917A00816080931B
:100D70007A0080917A00806880937A001092C10096
:100D8000E091F302F091F40282E08083E091EF02BF
:100D9000F091F0021082E091F102F091F20280E114
:100DA00080831092FB02E091F702F091F80286E056
:100DB0008083E091F502F091F6028081806180836A
:100DC000E091F502F091F602808188608083E091E5
:100DD000F502F091F602808180688083E091F5024F
:100DE000F091F60280818F7D80831092D90210925B
:100DF000D8021092D7021092D6020E946E0381E1AF
:100E000092E09093D5028093D40282E192E0909395
:100E1000D3028093D2028FB7F8944091DB025091B5
:100E2000DC026091DD027091DE028FBF87E292E00A
:100E30000E94D50380E392E00E94D50389E392E00B
:100E40000E94D5030E94EC014B015C0184E6C82E90
:100E5000D12CE12CF12C0E94EC01681979098A0946
:100E60009B09683E734081059105A8F321E0C21AF1
:100E7000D108E108F10888EE880E83E0981EA11CD5
:100E8000B11CC114D104E104F10429F70E94160336
:100E9000D9CFEE0FFF1F881F8BBF0790F691E02D73
:060EA0001994F894FFCF45
:100EA60000000000A90213024002F60271024F027E
:100EB600630200000000C103B603D2038C03AF0334
:100EC6009C038D030D0A0053746570733A2031003C
:100ED60053746570733A20320053746570733A2008
:020EE6003300D7
:00000001FF
